{
  "contractName": "BlocknyteSale",
  "abi": [
    {
      "inputs": [],
      "stateMutability": "nonpayable",
      "type": "constructor"
    },
    {
      "inputs": [],
      "name": "charity",
      "outputs": [
        {
          "internalType": "address",
          "name": "",
          "type": "address"
        }
      ],
      "stateMutability": "view",
      "type": "function",
      "constant": true
    },
    {
      "inputs": [
        {
          "internalType": "address",
          "name": "",
          "type": "address"
        }
      ],
      "name": "hasPurchased",
      "outputs": [
        {
          "internalType": "bool",
          "name": "",
          "type": "bool"
        }
      ],
      "stateMutability": "view",
      "type": "function",
      "constant": true
    },
    {
      "inputs": [],
      "name": "maxSales",
      "outputs": [
        {
          "internalType": "uint256",
          "name": "",
          "type": "uint256"
        }
      ],
      "stateMutability": "view",
      "type": "function",
      "constant": true
    },
    {
      "inputs": [],
      "name": "owner",
      "outputs": [
        {
          "internalType": "address",
          "name": "",
          "type": "address"
        }
      ],
      "stateMutability": "view",
      "type": "function",
      "constant": true
    },
    {
      "inputs": [],
      "name": "totalSales",
      "outputs": [
        {
          "internalType": "uint256",
          "name": "",
          "type": "uint256"
        }
      ],
      "stateMutability": "view",
      "type": "function",
      "constant": true
    },
    {
      "inputs": [],
      "name": "canPurchase",
      "outputs": [
        {
          "internalType": "bool",
          "name": "",
          "type": "bool"
        }
      ],
      "stateMutability": "view",
      "type": "function",
      "constant": true
    },
    {
      "inputs": [],
      "name": "hasAccess",
      "outputs": [
        {
          "internalType": "bool",
          "name": "",
          "type": "bool"
        }
      ],
      "stateMutability": "view",
      "type": "function",
      "constant": true
    },
    {
      "inputs": [],
      "name": "purchase",
      "outputs": [
        {
          "internalType": "bool",
          "name": "",
          "type": "bool"
        }
      ],
      "stateMutability": "payable",
      "type": "function",
      "payable": true
    }
  ],
  "bytecode": "0x608060405234801561001057600080fd5b5060008081905550606460018190555033600260006101000a81548173ffffffffffffffffffffffffffffffffffffffff021916908373ffffffffffffffffffffffffffffffffffffffff16021790555073f7ecdd70bf5532a700d39379d343d9d847ff8dc4600360006101000a81548173ffffffffffffffffffffffffffffffffffffffff021916908373ffffffffffffffffffffffffffffffffffffffff1602179055506108c6806100c56000396000f3fe60806040526004361061007b5760003560e01c80638da5cb5b1161004e5780638da5cb5b1461011f57806390118fb41461014a578063934aa02314610187578063bfdf9b6e146101b25761007b565b806334a6d8321461008057806364edfbf0146100ab5780636605ff66146100c957806385a2dd15146100f4575b600080fd5b34801561008c57600080fd5b506100956101dd565b6040516100a2919061052d565b60405180910390f35b6100b36101eb565b6040516100c0919061052d565b60405180910390f35b3480156100d557600080fd5b506100de610446565b6040516100eb9190610561565b60405180910390f35b34801561010057600080fd5b5061010961044c565b604051610116919061052d565b60405180910390f35b34801561012b57600080fd5b506101346104a0565b60405161014191906105bd565b60405180910390f35b34801561015657600080fd5b50610171600480360381019061016c9190610609565b6104c6565b60405161017e919061052d565b60405180910390f35b34801561019357600080fd5b5061019c6104e6565b6040516101a991906105bd565b60405180910390f35b3480156101be57600080fd5b506101c761050c565b6040516101d49190610561565b60405180910390f35b600060015460005410905090565b6000600115156101f96101dd565b15151461023b576040517f08c379a000000000000000000000000000000000000000000000000000000000815260040161023290610693565b60405180910390fd5b662386f26fc100003414610284576040517f08c379a000000000000000000000000000000000000000000000000000000000815260040161027b906106ff565b60405180910390fd5b61028c61044c565b156102cc576040517f08c379a00000000000000000000000000000000000000000000000000000000081526004016102c39061076b565b60405180910390fd5b600260009054906101000a900473ffffffffffffffffffffffffffffffffffffffff1673ffffffffffffffffffffffffffffffffffffffff166108fc606460503461031791906107ba565b610321919061082b565b9081150290604051600060405180830381858888f1935050505015801561034c573d6000803e3d6000fd5b50600360009054906101000a900473ffffffffffffffffffffffffffffffffffffffff1673ffffffffffffffffffffffffffffffffffffffff166108fc606460143461039891906107ba565b6103a2919061082b565b9081150290604051600060405180830381858888f193505050501580156103cd573d6000803e3d6000fd5b5060016000808282546103e0919061085c565b925050819055506001600460003373ffffffffffffffffffffffffffffffffffffffff1673ffffffffffffffffffffffffffffffffffffffff16815260200190815260200160002060006101000a81548160ff0219169083151502179055506001905090565b60005481565b6000600460003373ffffffffffffffffffffffffffffffffffffffff1673ffffffffffffffffffffffffffffffffffffffff16815260200190815260200160002060009054906101000a900460ff16905090565b600260009054906101000a900473ffffffffffffffffffffffffffffffffffffffff1681565b60046020528060005260406000206000915054906101000a900460ff1681565b600360009054906101000a900473ffffffffffffffffffffffffffffffffffffffff1681565b60015481565b60008115159050919050565b61052781610512565b82525050565b6000602082019050610542600083018461051e565b92915050565b6000819050919050565b61055b81610548565b82525050565b60006020820190506105766000830184610552565b92915050565b600073ffffffffffffffffffffffffffffffffffffffff82169050919050565b60006105a78261057c565b9050919050565b6105b78161059c565b82525050565b60006020820190506105d260008301846105ae565b92915050565b600080fd5b6105e68161059c565b81146105f157600080fd5b50565b600081359050610603816105dd565b92915050565b60006020828403121561061f5761061e6105d8565b5b600061062d848285016105f4565b91505092915050565b600082825260208201905092915050565b7f4d6178696d756d2073616c6573206c696d697420726561636865640000000000600082015250565b600061067d601b83610636565b915061068882610647565b602082019050919050565b600060208201905081810360008301526106ac81610670565b9050919050565b7f496e636f727265637420616d6f756e742073656e740000000000000000000000600082015250565b60006106e9601583610636565b91506106f4826106b3565b602082019050919050565b60006020820190508181036000830152610718816106dc565b9050919050565b7f4974656d20616c72656164792070757263686173656400000000000000000000600082015250565b6000610755601683610636565b91506107608261071f565b602082019050919050565b6000602082019050818103600083015261078481610748565b9050919050565b7f4e487b7100000000000000000000000000000000000000000000000000000000600052601160045260246000fd5b60006107c582610548565b91506107d083610548565b92508282026107de81610548565b915082820484148315176107f5576107f461078b565b5b5092915050565b7f4e487b7100000000000000000000000000000000000000000000000000000000600052601260045260246000fd5b600061083682610548565b915061084183610548565b925082610851576108506107fc565b5b828204905092915050565b600061086782610548565b915061087283610548565b925082820190508082111561088a5761088961078b565b5b9291505056fea2646970667358221220000b0531bde821e0dc04e49811cdff92f47aac78278d995a7fbd5be2df59552c64736f6c63430008130033",
  "immutableReferences": {},
  "source": "// SPDX-License-Identifier: MIT\npragma solidity ^0.8.0;\n\n/**\n * @title BlocknyteSales\n * @dev This contract implements a simple sale mechanism for a limited amount of sales.\n */\ncontract BlocknyteSale {\n  uint256 public totalSales; // The total number of sales made.\n  uint256 public maxSales; // The maximum number of sales that can be made.\n\n  address public owner; // The owner of the contract.\n  address public charity; // The charity to which a portion of the sale proceeds will be sent.\n\n  mapping (address => bool) public hasPurchased; // A mapping of addresses to their purchase status.\n\n  /**\n   * @dev Initializes the contract with an initial number of totalSales, maxSales, the owner's address, and the charity's address.\n   */\n  constructor() {\n    totalSales = 0;\n    maxSales = 100;\n\n    owner = msg.sender;\n    charity = 0xf7ECDD70BF5532a700D39379D343d9D847ff8dc4;\n  }\n\n  /**\n   * @dev Checks if a purchase can be made, i.e., totalSales is less than maxSales.\n   */\n  function canPurchase() public view returns (bool) {\n    return totalSales < maxSales;\n  }\n\n  /**\n   * @dev Checks if the caller has already purchased the item.\n   */\n  function hasAccess() public view returns (bool) {\n    return hasPurchased[msg.sender];\n  }\n\n  /**\n   * @dev Allows the caller to make a purchase if certain conditions are met.\n   * The caller must not have already purchased the item, and the contract must not have reached the maximum number of sales.\n   * A portion of the sale proceeds are transferred to the charity, and the rest is transferred to the contract owner.\n   * The purchase status for the caller's address is updated, and the total number of sales is incremented.\n   */\n  function purchase() public payable returns (bool) {\n    require(canPurchase() == true, \"Maximum sales limit reached\");\n    require(msg.value == 0.01 ether, \"Incorrect amount sent\");\n    require(!hasAccess(), \"Item already purchased\");\n\n    //uint256 amountToOwner = ;\n    //uint256 amountToCharity =;\n\n    payable(owner).transfer(msg.value * 80 / 100);\n    payable(charity).transfer( msg.value * 20 / 100);\n\n    totalSales += 1;\n\n    hasPurchased[msg.sender] = true;\n\n    return true;\n  }\n}\n",
  "sourcePath": "F:\\My Grandida projects\\Blocknyte_sales\\contracts\\BlocknyteSale.sol",
  "compiler": {
    "name": "solc",
    "version": "0.8.19+commit.7dd6d404.Emscripten.clang"
  },
  "schemaVersion": "3.4.13",
  "updatedAt": "2023-03-06T12:22:50.827Z",
  "networkType": "ethereum",
  "devdoc": {
    "details": "This contract implements a simple sale mechanism for a limited amount of sales.",
    "kind": "dev",
    "methods": {
      "canPurchase()": {
        "details": "Checks if a purchase can be made, i.e., totalSales is less than maxSales."
      },
      "constructor": {
        "details": "Initializes the contract with an initial number of totalSales, maxSales, the owner's address, and the charity's address."
      },
      "hasAccess()": {
        "details": "Checks if the caller has already purchased the item."
      },
      "purchase()": {
        "details": "Allows the caller to make a purchase if certain conditions are met. The caller must not have already purchased the item, and the contract must not have reached the maximum number of sales. A portion of the sale proceeds are transferred to the charity, and the rest is transferred to the contract owner. The purchase status for the caller's address is updated, and the total number of sales is incremented."
      }
    },
    "title": "BlocknyteSales",
    "version": 1
  },
  "userdoc": {
    "kind": "user",
    "methods": {},
    "version": 1
  }
}